:100000000C94A9010C94C6010C94C6010C94E11A3D
:100010000C94C6010C94C6010C94C6010C94C60144
:100020000C94C6010C94C6010C9484210C945822A3
:100030000C94C01C0C94C6010C94C6010C94C6010F
:100040000C94C6010C94C6010C94C6010C94C60114
:100050000C94C6010C94631D0C94C6010C94C6014B
:100060000C94C6010C94C6010C94C6010C94C601F4
:100070000C94C6010C94C6010C94C6010C94C601E4
:100080000C94C6010C94C6010C94C6010C94C601D4
:100090000C94C6010C94C6010C94C6010C94C601C4
:1000A0000C94C6010C94C6010C94C6010005010510
:1000B0000205030504050505000601060206030600
:1000C00004060506000701070207030704070507E2
:1000D00000080108020803080408050800090109CE
:1000E00002090309040905090000010002000300D8
:1000F00004000500000101010201030104010501E2
:1001000000020102020203020402050200030103CD
:1001100002030303040305030004010402040304AF
:100120000404050435001E001F00200021002200E9
:100130002B0014001A000800150017004C000400E2
:100140001600070009000A00E1001D211B0006003F
:100150001900050050004F00E3002C00C152A80018
:100160002D00270026002500240023003100130065
:1001700012000C0018001C00340033000F000E00A9
:100180000D000B000007380037003600100011008A
:10019000E2005100520028002A00000035003A0019
:1001A0003B003C003D003E002B004100520042005D
:1001B000430044004C00500051004F0017002F0036
:1001C000E1001D011B01060119014A00E300E200E4
:1001D000E00029000000A8002E0056005500540041
:1001E00040003F002A005700610060005F004500AA
:1001F000340085005E005D005C003000E5006700B3
:100200005B005A0059004D0058006300620028004E
:100210002A00000001003A003B003C003D003E0087
:1002200035001E001F0020002100220001001E02D8
:100230001F0220022102220201002E002D002E02A8
:100240002F02300201000100010001000100010045
:10025000440043004200410040003F0045002700A9
:100260002600250024002300310227022602250251
:1002700024022302010031003302330030002F003A
:1002800001000100010024520100010000AE00AF96
:1002900000DA0281FFD9F1DB20A4A62EAF00A0C0B6
:1002A00000A1C800AED580A81FD300408D14200047
:1002B0000C0353006F0066006C00650000001A0319
:1002C0004A006F0073006500660041006400610031
:1002D0006D00630069006B0000000403090409025B
:1002E0002200010100A0FA0904000001030101003D
:1002F00009211101000122400007058103080001C6
:10030000120100020000000832FC87020100010215
:10031000000105010906A101050719E029E71500FB
:100320002501950875018102950175088101050770
:10033000190029FF150026FF0095067508810005A4
:10034000081901290595057501910295017503911B
:1003500001C011241FBECFEFDAE0DEBFCDBF11E038
:10036000A0E0B1E0ECE2FAE402C005900D92A23602
:10037000B107D9F724E0A2E6B1E001C01D92A03A8E
:10038000B207E1F70E9409140C94CE240C940000EB
:100390008330B8F46A30A8F4463098F450E096E020
:1003A000699F400D511D1124FA019CE3899FE00DC6
:1003B000F11D1124EE0FFF1FEC5DFE4F859194910E
:1003C000089580E090E008950E94C801089581E0BA
:1003D000089581E008950E94E901089508950E941A
:1003E000EE010895A5E0B0E0E8EFF1E00C944E24B2
:1003F00049835A833091710189819A81311119C0E1
:10040000662399F0222389F00E942708182F682F6D
:1004100089819A810E94030869817A81812F0E94D3
:10042000BE0E2596E3E00C946A240E941508182F4E
:10043000F3CF0E94270869817A81F1CFFC01262F32
:10044000408151816281738184810E94F20108950B
:1004500081E00895CF93DF93EC0160E00E941E02DB
:10046000BE010E94EF01DF91CF9108950E94161006
:1004700008950E941A10089508950E94D2060E94BD
:100480003C022FEF84E39CE0215080409040E1F754
:1004900000C0000008950E943D020E94871D08953B
:1004A0000E943D020E94981D08950F931F93CF93C1
:1004B000DF938C0161E00E941E02EC01B8010E94F2
:1004C000EB01811106C080E0DF91CF911F910F9168
:1004D0000895B801CE010E9411198823A1F3B80133
:1004E000CE010E943516882371F3B801CE010E9417
:1004F0008318882341F3F8018281882361F0C33097
:10050000FCE7DF07E9F058F4C115ECE7DE07A9F0D6
:10051000C130DC47B9F0C8010E94E701D5CFCB3527
:100520008CE7D807A9F0CC35ECE7DE0771F0CA35C7
:10053000DC4789F70E944F0CEECF0E944B02C3CFDD
:100540000E94570C0E945002BECF0E94450CE3CF80
:100550000E94530CE0CF0E949D1C0E94D7020E9473
:10056000DD1508950E94DB020E94A21C08950895E3
:100570000E94B702089581E008950895CF93DF9314
:10058000D82F0E94BB02C82F882319F08D2F0E94FC
:10059000BD028C2FDF91CF9108950895CF93C82F7E
:1005A0000E94B8028C2F0E94BE02CF91089580E075
:1005B0000E94CE0208950E94071C0E94CE02089558
:1005C000CF930E94071CC82F809164018C1779F08B
:1005D000C09364010E942C1D6093650170936601B5
:1005E00080936701909368018C2F0E94CE02CF9177
:1005F0000895442319F08091730108959C0143E00C
:10060000369527954A95E1F7620F731F87709927F2
:1006100021E030E001C0220F8A95EAF7FB019081CA
:10062000922381E009F480E00895FC01E770FF2740
:1006300021E030E001C0220FEA95EAF733E0969519
:1006400087953A95E1F7FB01E80FF91F8081442374
:1006500019F0282B2083089520952823FBCF0F9392
:100660001F93CF93DF938C01DC0111968C9111972E
:100670008A3048F5CC91C63030F5D0E0B6E08B9F9B
:10068000C00DD11D1124F801428169E671E0CE014F
:100690000E94F90240E0882389F0CE01880F991F5B
:1006A000FC01E355FF4FE491D8011196EC931197AB
:1006B000FC01E455FF4FE491EC9341E069E671E001
:1006C000CE010E941503DF91CF911F910F910895E4
:1006D000ABE0B0E0EEE6F3E00C944F244F83588794
:1006E00069877A878B8761110E94900B8A859B8529
:1006F000892B29F08F81988589238F3F39F51E82B8
:100700001D8285E0FE013796DE01119601900D9263
:100710008A95E1F78C819D81892B61F449815A8109
:100720006B817C818D819E810E94930A2B96E2E0F1
:100730000C946B2489819A8189238F3F79F3CE01B0
:1007400001960E9428028111E9CFF0CFCE010796D1
:100750000E942F03D4CFFC01808191810E9459080F
:1007600092959F70963051F4863F41F080917301CD
:1007700091E0892780937301909372010895CF933C
:10078000C82F8823B9F08CEF8C0F813AA8F46C2F16
:1007900080910001909101010E94381C882329F06A
:1007A0008C2F0E942A0B0E94B10B8C2F0E94220BCF
:1007B0000E94B10BCF91089580E28C0F8830D0F762
:1007C000C77081E001C0880FCA95EAF70E94730BD9
:1007D000EFCF882341F09CEF980F913A28F40E94C4
:1007E0002A0B0E94B10B089590E2980F9830D8F729
:1007F000877091E001C0990F8A95EAF7892F0E94CE
:10080000790BEFCF1F93CF93DF93182FEB010E944B
:10081000BF03209739F4812F0E94E903DF91CF9124
:100820001F9108958FE99FE00197F1F700C0000044
:100830002197EFCF6AE070E0893311F460E570E052
:100840000E9402040895882321F00E94730B0E94E5
:10085000B10B0895882321F00E94790B0E94B10BFF
:100860000895B0E0A0E0E7E3F4E00C9448246C01C4
:10087000C62F172FFC01D281058102950F700E94AF
:10088000690BE82E8823D1F0DD2329F1812F807FA9
:10089000803441F090E29C0F9830E8F0803611F4FB
:1008A000C63FC9F08091700282FF15C082E00E94AD
:1008B000140C0E94690B91E0E82EE926B12EB29447
:1008C0009FE0B922FBE0FB15C0F1EB2DF0E0E05317
:1008D000FB4D0C943924E12CF1CF012F0F70812FA7
:1008E000807F11F00295007FDD2399F0002359F0FD
:1008F00080E28C0F883010F0C11107C0802F0E9459
:10090000730B0E94B10B8C2F6DC0802F0E94830B44
:10091000F8CF8C2F0E94E903002379F080E28C0F3E
:10092000883010F0C11104C0802F0E94790B03C0E1
:10093000802F0E94890B0E94B10B2B2D2850330B66
:100940002430310520F40E94071C0E94CE02DD23D2
:1009500039F0107F103611F4C63F11F00E945C0B85
:10096000EE2089F00E943F0B80FD0DC0F60112823F
:100970000E94390B0E946107C6010E949E060E94D8
:10098000390B0E947107CDB7DEB7E9E00C946424FF
:10099000212F2F70F22E812F807F803219F0F29458
:1009A00080EFF822CC2381F0C13009F449C0DD2367
:1009B00009F451C0002309F448C0F601858180FF85
:1009C000A2CF8F70858341C08091700282FD15C0D7
:1009D000DD2359F0FF2029F08F2D0E94730B0E9418
:1009E000B10B80E00E94BF03A8CF80E00E94E90322
:1009F000FF2009F4A2CF8F2D98CFDD2381F00111C4
:100A000006C00E94930B8F290E94230496CF0130C9
:100A1000C1F70E94930B8F290E949A0B8ECF011170
:100A200006C00E94A70B8F2D0E942A0486CF01309A
:100A300009F483CF8F2D0E942A040E94A70B7DCF3B
:100A4000DD2329F0063008F078CF8F2DDDCF05307B
:100A500008F073CFE8CF002331F3C93309F0EDC0BC
:100A6000FFEF27EE33E0F15020403040E1F700C0C7
:100A700000008C2F0E94E90360CF812F8370A9F5BD
:100A8000D1115BCF2C2F229526952770220F220F94
:100A90004C2F4F7050E0022E02C0440F551F0A9495
:100AA000E2F790E080E0C4FF09C08FE090E002C070
:100AB000880F991F2A95E2F780959095212F26950A
:100AC00026952370842B952B223049F058F4213041
:100AD00019F00E94310731CF0E9428072ECF0E94C3
:100AE0003A072BCF0E94250728CF8695DD2311F0EA
:100AF000812F8170882309F420CF2C2F22952695F1
:100B00002770220F220F4C2F4F7050E0022E02C090
:100B1000440F551F0A94E2F790E080E0C4FF09C03B
:100B20008FE090E002C0880F991F2A95E2F7809528
:100B30009095212F269526952370842B952B223076
:100B400049F058F4213019F00E949C07F6CE0E941B
:100B50009307F3CE0E94A507F0CE0E944907EDCE81
:100B6000012F0F70DD2329F0802F0E9461078C2F49
:100B70004BCF8C2F0E942A04802F0E947107DDCE5C
:100B8000C23F41F160F4C03FB9F0C13F81F0DD23C5
:100B900009F447C00111B7CE812F8F711FC0C33F29
:100BA00001F1C43FA1F78091700282FD24C0812F22
:100BB0008F71DD2311F312C0DD2341F0053008F001
:100BC000BCCE812F8F710E948307B7CE063008F00C
:100BD000B4CEF7CF812F8F71D111CFCF0E94610793
:100BE000ACCEDD2329F0812F8F710E945507A5CE51
:100BF0000E945007A2CEDD2351F0012F0F71802FEC
:100C00000E94610763E0802F0E94F60B96CE81E080
:100C10000E94140C023008F490CE82E00E94140C62
:100C20008CCE002379F0C93341F49FEFE7EEF3E077
:100C30009150E040F040E1F71ACF8FE39CE9019733
:100C4000F1F715CF812F8F7198CFE0E1EC0FE730EE
:100C500090F5F0E0E452FB4D0C943924DD2309F4C7
:100C60006CCE8091730191E089278093730165CEEA
:100C7000D093730162CE81E08D27F7CFD1115DCE85
:100C800081E0F3CFD11159CE1092730156CEDD23FE
:100C900019F00E94430B51CE0E944F0B4ECEDD2324
:100CA00039F0809172018823E1F21092720145CEF1
:100CB0000530B8F242CE809172010023D9F088232A
:100CC00041F08091730191E0892780937301109224
:100CD0007201D11118CEEFE3FCE93197F1F700C0B2
:100CE00000008C2F0E94E90386E0F60111928A959C
:100CF000E9F723CE882309F420CED1111ECE8091AE
:100D0000730191E0892780937301CFCF0F931F93D5
:100D1000CF93DF93EC01688179818A810E94640816
:100D20008C010E94AE070E942407B801CE010E94E8
:100D30003104DF91CF911F910F910895CF93DF93ED
:100D4000EC018B819C81892B29F0888199818923F1
:100D50008F3F51F4DF91CF910895CE010E94860616
:100D6000CE010E942A02F6CFCE010E9455028111C7
:100D7000F4CF0E94690B882369F38A81882351F399
:100D80008091700282FFE6CF82E00E94140CE2CFD5
:100D90000E94900B0E94B10B08950E94320B0E949A
:100DA000C80608950E94800B0E94CD060895929572
:100DB0009F70963091F058F4925F9F70923058F483
:100DC000803F19F030F4883E30F481E008959A5F56
:100DD000F4CF843FD1F380E00895883EB0F3813FA3
:100DE000D1F7F3CFFC0183819481892B29F0808195
:100DF000918189238F3F11F480E008958081918152
:100E00000E9459080E94D7060895A5E0B0E0EBE0E3
:100E1000F7E00C944F242596E2E00C946B24A6E0B6
:100E2000B0E0E5E1F7E00C944F242696E2E00C9464
:100E30006B2408950E94190708950E941A07909341
:100E4000970180939601089508950E941D070895C3
:100E50002091960130919701822B932B0E941D07C0
:100E600008952091960130919701822393230E9447
:100E70001D070895209196013091970182279327AD
:100E80000E941D0708950E94190708950E944307B4
:100E900008950E94460790939501809394010895C8
:100EA00090E080E00E944907089521E030E0A90128
:100EB00002C0440F551F8A95E2F7CA010E944907F4
:100EC000089521E030E002C0220F331F8A95E2F737
:100ED0008091940190919501822B932B0E94490758
:100EE000089521E030E002C0220F331F8A95E2F717
:100EF00020953095809194019091950182239323C0
:100F00000E944907089521E030E002C0220F331FFC
:100F10008A95E2F780919401909195018227932719
:100F20000E94490708952091940130919501822BE8
:100F3000932B0E94490708952091940130919501C7
:100F4000822393230E9449070895209194013091B0
:100F50009501822793270E94490708950895262F17
:100F6000277091E001C0990F2A95EAF723E0769562
:100F700067952A95E1F7660F771F660F771FFA01CD
:100F8000E60FF71F50E040E0682F70E08191DF012D
:100F900011979B01042E02C0369527950A94E2F71B
:100FA000217021952827292328272C934F5F5F4FF5
:100FB0004430510559F70895A82FA77023E096955E
:100FC00087952A95E1F7880F991F880F991FFB01D4
:100FD000E80FF91F50E040E080E0219130E00A2E58
:100FE00002C0369527950A94E2F721703327042E24
:100FF00001C0220F0A94EAF7822B4F5F5F4F443003
:10100000510559F70895262F9A3070F4863060F410
:10101000682F70E086E0989F600D711D112444E7F1
:1010200051E0822F0E94AF070895292F9A3068F46B
:10103000863058F490E064E771E036E0239F800D3D
:10104000911D11240E94DC07089580E00895B0E00E
:10105000A0E0EDE2F8E00C9448247C0100919401BA
:10106000109195018091960190919701082B192B71
:10107000CFE0D0E0CC24C394D12CBC2EC6010C2EE2
:1010800002C0880F991F0A94E2F780239123892BCD
:1010900049F4219790F7B12C8B2DCDB7DEB7E9E05D
:1010A0000C946424B7018C2F0E94CA0E019789F317
:1010B000F3CFCF93DF93EC010E942708BE010E947B
:1010C000CA0EDF91CF9108951F93CF93DF93EB0169
:1010D00090917101992339F0CB010E945908DF9159
:1010E000CF911F910895882369F0CB010E942708B2
:1010F000182F682FCE010E940308BE01812F0E9485
:10110000CA0EEDCFCB010E941508182FF6CF1F9302
:10111000CF93DF93C091980116E0809199018C13D1
:1011200004C0DF91CF911F910895D0E01C9FF00182
:101130001D9FF00D1124E656FE4F408151816281C2
:101140007381848195810E940F072196C770E5CF36
:101150004091CA015091CB016091CC017091CD01B9
:101160008091CE019091CF010E940F0708951F93A7
:10117000CF93DF938091CF01807F09F049C08091A8
:10118000CC01882309F444C080919801C091990151
:101190006091CA017091CB01A091CD01B091CE01B7
:1011A000D62FD72316E0C81799F190E0109711F0C9
:1011B000DF3F19F401968770F6CF189F9001199FB1
:1011C000300D1124F901E656FE4F41814713F2CF4D
:1011D00040814613EFCF42814111ECCF43815481CE
:1011E0004A1B5B0B4436510528F78091CF018F7065
:1011F00080618093CF01F901E156FE4F80818F70AD
:10120000806180838AEC91E00E949E060E9487089C
:10121000DF91CF911F910895A1E1B0E0E2E1F9E003
:101220000C9447248C0185E0F801DE011D960190A5
:101230000D928A95E1F7F801E2808AECC82E81E0F0
:10124000D82E6091CD017091CE016115710509F420
:101250004EC19091CA012091CB01892F82238F3FEB
:1012600009F445C140815181A380B480F090CC0144
:10127000F501E61BF70BFF2009F4EAC08091CF01CE
:10128000382F307FE436F10508F0A3C031116DC06E
:10129000FE2C251316C0941314C0E11012C08F70D9
:1012A00080618093CF010E94A808C6010E949E061B
:1012B0008091CF01F80185838F2D6196EAE00C942F
:1012C0006324A114B10429F0842F85238F3F09F0F2
:1012D00027C180E0F82FF170DF2E80FF3CC08091A5
:1012E00098012091990136E0821315C04D875E87E1
:1012F0008D859E850E945908292F22952F702230B6
:10130000F0F0243018F59F70F1F0F8019581907F8E
:10131000D1F4D12C1EC090E0389FF001399FF00D20
:101320001124E656FE4F6181651306C06081641387
:1013300003C06281E6120FC001968770D5CF9F70FF
:1013400011F0882331F3805E883018F3C8010E94C1
:101350009E06FD2CB1CFEE2009F4AECF8091CF01D7
:1013600081608093CF01F12CA7CF251306C0941381
:1013700004C0F801EE2009F487C0C8010E94F206FB
:10138000882319F1EE2009F18091CF01803270F0AD
:101390002091CA013091CB0138872F831986BB86F3
:1013A000AA868C87CE0107960E949E0686E0F801E9
:1013B000AAECB1E001900D928A95E1F70E94B7087E
:1013C0000E94A808FF24F39477CFC8010E949E06CC
:1013D000F9CF311113C07A2DB98AA88A6E2D898967
:1013E0000E9405078AEC91E00E949E0686E0F601C5
:1013F00011928A95E9F70E94A808B5CF25130FC06E
:1014000094130DC0E1100BC0F8018583C8010E9440
:101410009E0686E0F60111928A95E9F74DCFC80144
:101420000E94F206882389F2EE2079F28091CF01A2
:10143000803208F4BBCF2091CA013091CB013A83AE
:1014400029831B82BD82AC828E83CE010196ACCFF4
:10145000E436F10508F03EC0FE2CEE2009F4B5CFCD
:1014600025132AC0941328C08091CF0180FD1BC092
:10147000982F907FC1F0F8018583903F31F0982F2D
:10148000907F905F8F70892B8583C8010E949E0694
:1014900086E0F801AAECB1E001900D928A95E1F79F
:1014A0000E94A80809CF86E0F801AAECB1E00190FB
:1014B0000D928A95E1F700CFC8010E94F2068111D2
:1014C00075CF8091CF0181608093CF01C8010E94C8
:1014D0009E06F2CE7A2DB98AA88A6E2D89890E943D
:1014E000050786E0F60111928A95E9F7D9CFEE203B
:1014F00009F46BCFC8010E94F206F82E882309F484
:1015000064CF86E0F801AAECB1E001900D928A95D3
:10151000E1F78AEC91E00E94AB030E94B708C0CFCC
:1015200081E08E25D7CEACE0B0E0E9E9FAE00C949A
:101530004E244F83588769877A878B879C87CE0193
:1015400007960E940C09882369F08A859B85892B60
:1015500039F04F815885842F85238F3F09F06BC068
:1015600016E05FC086E0FE013796DE01119601901D
:101570000D928A95E1F78A859B85892B89F3888569
:101580009F8189238F3F61F32091990130E0C90148
:10159000019687709927409198014817190671F4B0
:1015A0000E94D206109299011092980186E0EAEC0E
:1015B000F1E0DF011D928A95E9F7D2CF96E0929F84
:1015C000D001939FB00D1124A656BE4FFE01319657
:1015D00001900D929A95E1F7809399010E948708F6
:1015E000BFCF819FC001112486569E4F0E940C09D7
:1015F0008823E9F0E09198011E9FF0011124E6563E
:10160000FE4F4081518162817381848195810E9466
:101610000F078091980190E0019687709927809339
:10162000980180919801909199018913DACF2C96B5
:10163000E3E00C946A2469857A858B859C850E94F9
:101640000F078ECF682F80910001909101010E94B9
:101650006E1C0895682F80910001909101010E94F5
:10166000711C089580910001909101010E94741CE9
:1016700008958091D90185958595859508958091E6
:10168000D9018770089582E08093D80181E080932A
:10169000730108951092D8011092730108958091FA
:1016A000D801823021F481E08093D80108958330FD
:1016B00011F40E944A0B08958091D801823021F4E0
:1016C00083E08093D8010895813011F40E944A0B81
:1016D00008959091D901977081E009F480E0089510
:1016E0008091E40108959091E401892B8093E401B5
:1016F000089580959091E40198239093E4010895D2
:101700001092E40108959091E301892B8093E30105
:10171000089580959091E30198239093E3010895B3
:101720001092E30108958091DA01089508950E94CE
:10173000960B08959091700292FF08C09091DA0183
:10174000981721F08093DA010E94970B08958091F9
:10175000DA01882329F01092DA0180E00E94970BC9
:101760000895CF93DF93E0910001F0910101809102
:10177000E4018083E0910001F0910101808190916A
:10178000E301892B80839091DA01992381F0E09124
:101790000001F09101018081892B808380910001FB
:1017A000909101010E94261C81110E94A70BC091FB
:1017B0000001D091010148E050E060ED71E0CE0100
:1017C0000E947624892B59F088E0FE01A0EDB1E05B
:1017D00001900D928A95E1F7CE010E941B1CDF91CA
:1017E000CF91089508950E94F20B08959091700290
:1017F00092FF11C098E0899F90011124622B6093A1
:10180000D9010E9461078091D901859585958595BB
:101810000E94F30B08950E94610708951092D90168
:1018200080E00E94F30B08959091D901809589235F
:101830008093D901282F277091F4282F082E000CAF
:10184000330B9217130659F09091700292FF07C064
:101850008595859585950E9471070E940E0C0895C7
:101860009091700292FB222720F9281769F080FBE3
:1018700092F99093700280916F02909170020E9491
:10188000780C82E00E94140C08958091700282FB13
:10189000882780F991E089270E94300C089581E023
:1018A0000E94300C089580E00E94300C08956FEF84
:1018B0007FEF90E080E00E94B824089590E080E0FF
:1018C0000E94942421E0873E9E4F09F020E0822F61
:1018D000089582E090E00E948C24089583E090E0D7
:1018E0000E948C24089584E090E00E94942408953E
:1018F000BC0184E090E00E94B8240895AB01BC01D3
:101900008FE090E00E94AC240895AB01BC0183E11C
:1019100090E00E94AC24089560E070E0CB010E944A
:10192000850C089560E070E0CB010E947E0C0E945F
:101930008C0C089567EE7EEF90E080E00E94B82462
:1019400060E082E090E00E949A2460E083E090E012
:101950000E949A24109297011092960160E074E11F
:1019600084E090E00E94B82460E086E090E00E946D
:101970009A246FEF87E090E00E949A2440E050E0C4
:10198000BA0188E090E00E94AC2460E08DE090E035
:101990000E949A2440E050E0BA0188E190E00E9461
:1019A000AC2460E087E190E00E949A2440E050E09F
:1019B000BA018CE190E00E94AC2470E060E080E22B
:1019C00090E00E94B82440E050E0BA0188E190E045
:1019D0000E94AC240E94920C08950E949A0C0895D3
:1019E000682F8EE090E00E949A2408950E942C1D9A
:1019F0006093F9017093FA018093FB019093FC01CD
:101A00006093F5017093F6018093F7019093F801CC
:101A100008950E942C1D6093F9017093FA01809340
:101A2000FB019093FC016093F1017093F2018093AC
:101A3000F3019093F4010895089508950E941D0DF7
:101A4000089508950E94210D089584EF9FE00E945B
:101A5000FD1B0E941C0D0E941E0D08950E94C011C6
:101A60000895089508950E94310D0E94320D089541
:101A70000E94F70F0E94CD0208950E94171D0E9438
:101A8000B40F0E94DB110E9420170E9421110E94B6
:101A9000380D0E94161480E00E9471140E94E51116
:101AA0000E94220D0895AAE0B0E0E9E5FDE00C9463
:101AB00047240E94441187EEA82E81E0B82E7501BC
:101AC00010E0F70101917F01812F0E941D101F5F1F
:101AD0001A3009F441C00817A1F38091FD0181FD7E
:101AE0000E9423100E942E0DC82E10E0812F0E940C
:101AF0001D10082FF50181915F01081731F1F12CBC
:101B0000EE24E394D02ED8268D2D8E21B1F0CC205A
:101B1000A1F0FE821F8391E0802F8E2109F490E0D6
:101B200098870E94201D8160782F9A8789874E812F
:101B30005F8168858A850E946803F394EE0CF6E065
:101B4000FF12E2CFF501319700831F5F1A3071F663
:101B50000E94F60C11E021C00813BFCF0E94201D87
:101B60008C018091E5019091E60108171907A1F019
:101B70008FEF89838A831B820E94201D8160782FCA
:101B80009D838C8349815A816B818D810E9468037A
:101B90001093E6010093E50110E00E94C0110E943D
:101BA000A417082F81110E94090D0E94FD15111123
:101BB00001C001110E94D0140E94E0022A96EAE0BE
:101BC0000C946324CF93DF930E94CF0EEC018032FC
:101BD00022E59207A0F5811532E5930708F072C05F
:101BE000811540E29407F8F4C11581E0D807B8F4F4
:101BF000C03ED10588F4CD3CD10508F061C0C130AC
:101C0000D10569F0209759F0CE010497813A9105EA
:101C100030F0D0E0C0E003C0C83ED105D0F7CE011F
:101C2000DF91CF910895811520E5920708F08CC0CF
:101C30008115904408F495C0DF70D06AF0CF803AE7
:101C400042E5940720F5C03882E5D80708F069C05E
:101C5000C03622E5D20708F04FC0C03432E5D307C2
:101C600008F443C02C2F26952695277080E2289FE4
:101C7000900111248C2F8370C1E0D0E002C0CC0F02
:101C8000DD1F8A95E2F7C22BD32BDC68C8CF803EDC
:101C900042E5940760F4C03C82E5D80708F448C0E8
:101CA000DC2FCC27CC27DF71C06FD06AB8CF965518
:101CB0008F3F910511F008F0ACCFDD27D066AFCF94
:101CC000D065ADCF282F2695269540E2249F900120
:101CD00011248370C1E0D0E002C0CC0FDD1F8A95D3
:101CE000E2F7C22BD32BDD689ACFCF71D0E0DC2F87
:101CF000CC27C16FD06A93CF2C2F269526952770BD
:101D000040E2249F900111248C2F8370C1E0D0E029
:101D100002C0CC0FDD1F8A95E2F7C22BD32BDA6805
:101D20007ECFCF71D0E0DC2FCC27C46FD06A77CFC5
:101D30008C2F8F710E94710FC82FD0E0DC2FCC2721
:101D4000CC27DF71D0626BCF8F710E94710F35E0AD
:101D5000D695C7953A95E1F7CF709C2FEC01D069E5
:101D60005ECF8D2F8F710E94710F90E0982F882782
:101D700088279F719C012C2BE901E4CF462F7A30F4
:101D800030F4663020F4672F0E94E401089590E05B
:101D900080E008950E94BE0E0E94E20D08958238F0
:101DA0009105B9F1B0F48133910509F47DC048F48F
:101DB0008932910509F46DC08A32910509F47BC01E
:101DC00008958533910509F45FC08933910509F1C0
:101DD0000895833E9105D9F138F4803E910529F1AB
:101DE000823E910579F10895863E9105D9F1873EAD
:101DF000910509F43EC0843E910541F520917002A1
:101E000021FF24C080916F0284FD19C087EE90E00D
:101E1000089520916F02237009F05AC0209170023A
:101E200023FF14C089E290E0089520916F0220FD05
:101E300038C03091700230FF09C024FF43C090E0E9
:101E400080E0089520916F0222FDF7CF0895209140
:101E50006F0222FD3AC03091700230FD39C024FF7C
:101E6000F5CFEDCF20916F0223FFF0CF24FDE7CF18
:101E7000CDCF20916F0223FD2EC03091700231FF33
:101E8000EECF84EE90E0089520916F0225FFDECF23
:101E9000C9CF20916F0225FD21C02091700223FF40
:101EA000D5CF89E390E0D2CF20916F0226FFCECF2D
:101EB0008AE290E0089520916F0226FFC7CF81E368
:101EC00090E0089583EE90E0089582EE90E008950A
:101ED00080EE90E0089586EE90E0089585E390E02E
:101EE000089590916F0292FF06C0282F2871283024
:101EF000F9F4877F846093FF06C0282F287128316A
:101F0000F1F4877E84612091700220FF06C0382F93
:101F100038713830D9F4877F816021FF06C0282FBF
:101F200028712831D1F4877E816194FD877E0895E0
:101F3000282F24712430F9F68B7F8860DCCF282F7E
:101F40002471243101F78B7E8861DDCF382F317108
:101F5000313019F78E7F8860E0CF282F2171213131
:101F600021F78E7E8861E1CF10926B0210926C0295
:101F700010926D0210926E020895CF92DF92EF924E
:101F8000FF926B017C010E94C01181110EC00E9462
:101F90002C1DC61AD70AE80AF90AC0926B02D09221
:101FA0006C02E0926D02F0926E02FF90EF90DF9073
:101FB000CF9008950F931F930E94C011882329F09A
:101FC0000E942C1D1F910F9108950E942C1D0091BD
:101FD0006B0210916C0220916D0230916E02600FC5
:101FE000711F821F931FEECF80E0089508950E9415
:101FF0005E0C811102C00E94ED0C0E94690C80935E
:10200000FD010E94730C9093700280936F020E94F6
:10201000F60F0E946E0C90E00E94250780919401BB
:10202000909195010E944607089508950E94151009
:10203000089508950E9419100895E82FF0E0E458DB
:10204000FD4F80810895089580EA8A95F1F70895FB
:1020500000C008950E942410089508950E942D1034
:102060000895A5E0B0E0E7E3F0E10C944B240E9472
:10207000C011F82E60918602882309F440C085E0E3
:10208000E82E8E010F5F1F4FF8018E2D11928A9559
:10209000E9F7862F90E0B80184589D4F0E94F31114
:1020A0008823B9F08091710290E045E050E0B801DA
:1020B00084589D4F0E94762421E02093FE01892BB5
:1020C00091F4F12C0E9439028F2D2596E6E00C94B4
:1020D00067248091FE018823A1F3F8011192EA940C
:1020E000E9F71092FE01A0917102B0E0A458BD4F33
:1020F00085E0F80101900D928A95E1F7E3CF70E059
:1021000064587D4F8091710290E084589D4F0E94E9
:102110007A120E942E10D8CFF894E82FE295EF7033
:10212000F0E031A1282F2F7081E090E001C0880FEE
:102130002A95EAF7982F9095932391A392A1892B42
:1021400082A3789408950F931F93CF93DF93C3E4F2
:10215000D1E089918F3F11F00E948C1081E0C8344A
:10216000D807B9F7CDE3D1E003E411E089918F3FBF
:1021700011F00E948C100C171D07C1F7DF91CF9151
:102180001F910F910895B0E0A0E0E9ECF0E10C940C
:102190004924EC01D62E062F10E0C8018D5B9E4F1E
:1021A0007C01FC0180818F3F09F444C0F894E82F42
:1021B000E295EF70F0E091A18F7021E030E001C076
:1021C000220F8A95EAF7892F822B81A382A120957D
:1021D000282322A378940E942810EDE3F1E031E057
:1021E000C12C21912F3F59F1A22FA295AF70B0E0E1
:1021F00090968C9190E02F7002C0959587952A95C6
:10220000E2F780FD1CC0832FC82A330F81E0E3343E
:10221000F80739F7F70180818F3F11F00E948C1089
:1022200061E0C11001C060E08D2D0E942A10C00F36
:10223000D11FC882CDB7DEB7E8E00C94652480E0FA
:10224000E3CF809102018091020195E0811190E03D
:102250009093860285E0891B809371020E94A310EF
:102260008AE0ECE7F2E0DF01982F1D929A95E9F7FA
:10227000E2E7F2E0DF011D928A95E9F785E00E942E
:1022800082110E9436020895AAE0B0E0EAE4F1E18A
:102290000C944C248E010F5F1F4F8AE0F8011192BD
:1022A0008A95E9F7F12C6F2DC8010E94C310F394B1
:1022B000F5E0FF12F8CF4AE050E0B80182E792E083
:1022C0000E94762421E0009709F420E0892B41F058
:1022D0008AE0F801A2E7B2E001900D928A95E1F759
:1022E0006091860270E064587D4F45E082E792E09D
:1022F0000E948311182F0E943110812B2A96E5E04D
:102300000C9468240895CF92DF92EF92FF920F937E
:102310001F93CF936C017B01042F222349F081E0AE
:10232000809301020E94201D909300028093FF0180
:10233000C0910102C1110AC0C0E08C2FCF911F9142
:102340000F91FF90EF90DF90CF9008958091FF0163
:10235000909100020E94381D059770F310E0A801CB
:10236000B601C7010E947624892B41F0A801B6016D
:10237000C7010E94832410920102DFCFC0E0FBCF8F
:1023800080910402811107C00E940424882351F027
:1023900081E08093040281E090910402913009F081
:1023A00080E0089582E0809304020E94FF23F3CF2F
:1023B0000E94C01108950E94D811809302010E94CA
:1023C000C01181110E94291208950E94C01181112B
:1023D00002C00E942C12089581E0909105029A306B
:1023E00008F080E008950F931F93CF93DF93EC01E3
:1023F0008B01809105028A30B8F4B801CE010E94A9
:102400007712C82F811122C0809105028F3FB9F445
:102410000E94201D90930302809302028C2FDF9173
:10242000CF911F910F910895809102029091030224
:102430000E94381D843F914000F7C0E0EFCF8F5FCE
:10244000809305028A3020F7C1E0E8CF10920502A0
:10245000E5CF0E949B1A08950E949E1A0895B0E04D
:10246000A0E0E5E3F2E10C944A247901C82F880F3B
:10247000DD0B41155105A9F0FE0193E0EE0FFF1FA2
:102480009A95E1F7ED5FFE4F818192818A5F9D4FC2
:10249000208130E04217530708F49A01A9010E94F5
:1024A0008324CE010E94871BD82E8823D1F00115EA
:1024B0001105B9F083E0CC0FDD1F8A95E1F7FE012D
:1024C000ED5FFE4F438150E00417150708F4A801A3
:1024D000CD5FDE4F6C817D816A5F7D4FC7010E94B9
:1024E00083248D2DCDB7DEB7E7E00C9466240E94DF
:1024F000931308950E94B4130895A4E0B0E0E3E8B4
:10250000F2E10C944D246091230270912402809199
:102510002502909126020E94471D11E06436710544
:102520008105910518F10E94DA0F6E5F7F4F8F4F82
:102530009F4F69837A838B839C8310E000E030E0B7
:1025400020E044E050E0BE016F5F7F4F84E00E94D6
:102550002F12182F882351F00E942C1D6093230204
:10256000709324028093250290932602812F249653
:10257000E4E00C946924A1E0B0E0E1ECF2E10C9419
:102580004424762E4A015901680101E010E09E01C1
:102590002F5F3F4F50E040E070E060E00E942F125C
:1025A000182F882399F1F4016081718182819381D0
:1025B0000E94471D643671058105910500F1870170
:1025C000950150E040E070E060E0872D0E942F12FE
:1025D000B82EB701C6010E94171411E09981981313
:1025E00010E01B2139F00E942C1DF40160837183DF
:1025F00082839383812F2196EDE00C946024B701B0
:10260000C6010E94171499818913D9CFA701B60179
:10261000C5010E948324EECFA1E0B0E0E2E1F3E146
:102620000C944B240091480110914901095F1F4F00
:10263000EE24E394F12C9E012F5F3F4F4FE152E0D7
:1026400063E082E00E94BB12182F882321F0CE01A4
:1026500001960E943F18812F2196E6E00C94672492
:10266000A5E0B0E0E6E3F3E10C9449246B010091AE
:102670004801109149010F5F1F4F85E0E82EF12CB2
:102680009E012F5F3F4F4BE152E061E080E00E94EE
:10269000BB12882349F095E0FE013196A6E1B2E035
:1026A00001900D929A95E1F795E0E6E1F2E0D6010E
:1026B00001900D929A95E1F72596E8E00C94652437
:1026C000B0E0A0E0E6E6F3E10C9447247C015B0176
:1026D0006A010E94EC1101E010E0882311F00AE089
:1026E00010E0C1E0D0E0B501C701F6010995811104
:1026F00004C021960C171D072CF4CDB7DEB7EAE015
:102700000C946324CC9F9001CD9F300D300D11248B
:1027100090E080E045E34A95F1F7000001968217CA
:102720009307C1F7E0CF0F931F93CF93DF93EC0193
:102730008B0140E353E10E946013811106C080E0E9
:10274000DF91CF911F910F9108954CE053E1B801B3
:10275000CE010E946013882391F34DE752E1B80146
:10276000CE010E946013ECCFA1E0B0E0EAEBF3E110
:102770000C944D240091480110914901C801019623
:1027800025E0FB01DC0101900D922A95E1F765E05F
:1027900070E00E941714F8018083CE0101960E9418
:1027A00034188981F801878361E070E0CE010196D9
:1027B0000E941714F8018683608571858285938550
:1027C000009112021091130220911402309115020F
:1027D000601771078207930751F06093120270939C
:1027E000130280931402909315020E94BD0F21964C
:1027F000E4E00C9469240E94EC1E0E943D0D0E94AE
:10280000F91E08950E94FE1E0E94530D0E94181F7B
:1028100008950E94B91C0E94D21E0E94250D0E949C
:10282000FB130E9402140E94330DFBCF0895FC019C
:10283000680F791F8FEF91E3E617F70709F4089502
:102840002191822728E030E087FF06C0880F892782
:1028500021503109C9F7F0CF880FFACFB0E0A0E0DE
:10286000E4E3F4E10C9449246C017B0164E670E03C
:1028700088E70E945B19EC0197FD12C010E000E0B0
:10288000F601E00FF11F849164E670E00E94C71921
:10289000EC01892B29F40F5F1F4F0E151F0581F7DF
:1028A0000E943D1ACE01CDB7DEB7E8E00C94652456
:1028B00008950E9458140895E7E8F2E080E092E05D
:1028C000DF019C011D9221503040E1F7F0938E040E
:1028D000E0938D048FEF9FEF90934D0280934C0215
:1028E00008950E9458140E9459148093480280FD54
:1028F0000FC080E8809347020E9455196DE070E098
:1029000083EA92E00E942E14892B21F080E0089542
:1029100080E2F0CF8091480263E070E081FD26C044
:1029200080EA92E00E942E14892B81F76DE070E01E
:1029300080E992E00E942E14892B41F70E942C1D01
:10294000605A75418F4F9F4F6093890470938A043A
:1029500080938B0490938C040E945C1481E080939C
:102960004B0280934A021092490208958DE992E049
:10297000D9CF2091470236E0839FC0011124629F86
:10298000800D911D1124811522E0920714F090E032
:1029900080E089579D4F90938E0480938D04089515
:1029A00080914B02811103C080914A0208950E94D8
:1029B0002C1D605A75418F4F9F4F6093890470930F
:1029C0008A0480938B0490938C0480914A02811135
:1029D000EBCF62E070E08EE892E00E942E14892B2B
:1029E00019F781E080934A02DFCFB0E0A0E0EBEF7F
:1029F000F4E10C94432480914C0290914D02892B78
:102A000009F4BDC080914B02882309F4B8C08091BD
:102A100049028111B4C00E94D01420914C0230911F
:102A20004D022115310509F4AAC080E041E050E0D3
:102A3000082F10E0EA01082E02C0CC0FDD1F0A9417
:102A4000E2F7BE0162237323672B11F48F5FF0CF8F
:102A50009091480290FF98C0880F880F880F80934C
:102A60002D0110923001895F80932E0183E08093C5
:102A7000310124E630E047E050E06BE271E088E7A6
:102A80000E94F519892B09F07AC0A80125E0440FAE
:102A9000551F2A95E1F78091480280FF87C0E7E241
:102AA000F2E080E2DF011D928A95E9F70EE411E081
:102AB0008AE4E82E81E0F82E97E0992E882483940A
:102AC000D801ED918D01D7016D917D01640F752FB6
:102AD000711D69577D4FF0E0E95DFD4F30E020E06A
:102AE000792C721AA82C022E01C0AA0C0A94EAF7BB
:102AF0006B0190E0D6018D916D018A21A72DA91B54
:102B0000A770BA2E0A2E000CBB0B682E01C0660CF3
:102B1000BA94EAF7B62CB195A195B109A770BB2775
:102B200001C08695AA95EAF7A62DA82B80818A2B4D
:102B300080839F5F9830F1F62F5F3F4F31962830AA
:102B4000310571F681E00235180709F0B9CF04E6C6
:102B500010E020E230E047E252E060E488E70E94C3
:102B6000161A892B61F4C095D09580914C029091F2
:102B70004D02C823D923D0934D02C0934C02CDB748
:102B8000DEB7EEE00C945F248295880F8076809308
:102B90002D0198013695279536952795209330017C
:102BA000815E80932E011092310163CF49575D4FB2
:102BB00004E610E020E230E0D0CF80914A0290910C
:102BC0004B02911103C091E089270895882369F091
:102BD00062E070E08CE892E00E942E14892B19F0DC
:102BE00080914A02089510924A0280914A02EBCFE6
:102BF00081E008950E94F81508950F931F93809126
:102C00004B02882379F180918704909188040E9477
:102C1000381DC29760F00E94201D90938804809315
:102C2000870460E080E00E94B9140E94FA150E94B7
:102C3000F51480914A028823A9F00E942C1D00916E
:102C4000890410918A0420918B0430918C04601BBC
:102C5000710B820B930B6F3F7F4F8F4F9F4710F489
:102C60000E94DD151F910F910895CF93DF93EC0122
:102C7000FB018281882309F4D2C09E0130572332A0
:102C8000310508F0B2C00E94730C909370028093DB
:102C90006F02FE01E150F047E232F10520F4ED5100
:102CA000FB4D0C94392480916F02816080936F02F8
:102CB00093C0809170028860809370028DC0809173
:102CC0006F028260F3CF80916F028460EFCF8091BA
:102CD0006F028860EBCF809170028160EDCF8091B0
:102CE00070028260E9CF80916F028061DFCF8091B6
:102CF0006F028062DBCF80916F028064D7CF0E9429
:102D0000D20680916F028068D1CF80916F028C6073
:102D1000CDCF809170028360CFCF80916F028E7F84
:102D2000C5CF80917002877FC7CF80916F028D7F62
:102D3000BDCF80916F028B7FB9CF80916F02877F6B
:102D4000B5CF809170028E7FB7CF809170028D7F5A
:102D5000B3CF80916F028F7EA9CF80916F028F7D5C
:102D6000A5CF80916F028F7BA1CF0E94D206809168
:102D70006F028F779BCF80916F02837F97CF809177
:102D800070028C7F99CF80916F0282FB992790F916
:102D900021E0922790FB82F990FB83F987CF809105
:102DA0007002982F909591708E7F892B90FB81F9FE
:102DB00083CF90916F02892F8F7B96FF806476CFAF
:102DC0000E94D20690916F02892F97FB87F9805855
:102DD0006DCF81E00E94F00C80916F0290917002A3
:102DE0000E94780C0E94D20680E0DF91CF91089576
:102DF00080E0F0CF90916F02892F8F7E94FF8061E9
:102E000055CF90916F02892F8E7F90FF81604ECFBA
:102E100090917002892F877F93FF88604DCF81E06A
:102E2000E4CF8FE891E00197F1F700C0000008952A
:102E300081E008950E94181708950E94C011089516
:102E40000F931F93CF93DF939091020181E0982716
:102E500090935202282F291B209351029091020136
:102E6000809353029091020180935002809102015D
:102E7000811106C084EF8093330185EF8093320186
:102E800020913301E22FE295EF70F0E061A12F7005
:102E900081E090E0AC0101C0440F2A95EAF7342F9D
:102EA0003095362331A322A1242B22A32091320175
:102EB000E22FE295EF70F0E031A12F7001C0880F92
:102EC0002A95EAF7982F9095932391A392A1892BA5
:102ED00082A30E9411176091530246E552E0C3E3BA
:102EE000D1E002E311E0FA0126C02991822F8295F8
:102EF0008F7090E0DC0190968C9190E02F7002C072
:102F0000959587952A95E2F78170D8019D918D015D
:102F1000292F22952F7030E0D90190962C9130E026
:102F20009F7002C0359527959A95E2F790E020FDB5
:102F300092E0892B81938E2F841B8617B0F2DF914C
:102F4000CF911F910F910895B0E0A0E0EAEAF7E178
:102F50000C94492410E000E082E0C82ED12C80912E
:102F60005302181730F0802FCDB7DEB7E8E00C948D
:102F70006524C12FD0E0FE01ED5CFE4F8081E82F7B
:102F8000E295EF70F0E0E0A1F0E08F7002C0F595FF
:102F9000E7958A95E2F7E170DE01AE5CBE4F4C9199
:102FA000A42FA295AF70B0E090968C9190E04F70F6
:102FB00002C0959587954A95E2F780FD4DC080E067
:102FC0008E2BDE01AA5ABD4FEC919E2F937098175D
:102FD00009F440C0EE0FEE0FE82BEC93E0905202A4
:102FE000E10EEF70F0E0EE5AFE4FCC5ADD4F8081DB
:102FF0009881890F8883F12C823084F0EE2DF0E0E7
:10300000E25BFD4F80818F5F80830E941D17F82E49
:10301000882321F160E08E2D0E941A1788818F3F4E
:1030200084F4EE2DF0E0E25BFD4F808181508083DF
:103030000E941D17F82E8823A1F061E08E2D0E94BA
:103040001A178881082E000C990BB6010E942524BE
:1030500088830F291F5F83CF82E0B2CFFF24F394D0
:10306000DDCFFF24F394EDCF4091530250E0609107
:10307000520270E0625B7D4F0E9483240895B0E0AD
:10308000A0E0E5E4F8E10C9449246C01D0E080E094
:1030900090915002D91740F081110E94090DCDB7CF
:1030A000DEB7E8E00C946524F0905102FD0E0F2D80
:1030B00010E0025B1D4FF601ED0FF11DC081F8011C
:1030C0009081C91BEC2E1E1444F09C2FC7FD90E08C
:1030D000C91BC1110DC0DF5FDBCFEA94F80180810D
:1030E0008F5F808360E08F2D0E941A1781E0EBCF05
:1030F000CF5FF80180818150808361E08F2D0E9435
:103100001A1781E0E6CFCF93DF93EB0186319C471E
:1031100011F50E94700B9A81992399F08A7A91E0B7
:1031200009F490E090935802811109C089E20E944D
:10313000220B0E94B10B80E0DF91CF91089585E3CF
:10314000F6CF80915802811104C089E20E942A0BB7
:10315000F0CF85E3FBCF81E0EFCF0F931F93CF93A9
:10316000DF93C42FD22FFC0182818823C9F04093C2
:103170005B020E94201D90935A028093590280E2C4
:103180008C0F883040F4C77081E001C0880FCA9569
:10319000EAF70E942304DF91CF911F910F910895C8
:1031A00010915B02141332C08091590290915A021F
:1031B0000E94381D8436910548F5C0E2CD0F1D17D9
:1031C000B9F080E2810F883040F4177081E001C0CF
:1031D000880F1A95EAF70E942A04C83048F481E063
:1031E0009D2F977001C0880F9A95EAF70E942304DB
:1031F000802F0E941A04C83070F6D77081E001C099
:10320000880FDA95EAF70E942A04C5CF80E28C0F76
:10321000883008F6C77081E001C0880FCA95EAF7C8
:10322000F2CF0F93DB0188519C4787309105A0F5C1
:10323000FC01EB5FFA4D0C94392406E221EE41EEDD
:103240006AE17CE7CD010E94AD1880E00F910895FE
:1032500007E225EE45EE6BE17CE7F4CF06E221EED6
:1032600040EE68E17CE7EECF07E225EE44EE69E14F
:103270007CE7E8CF06E221EE42EE6CE17CE7E2CFAC
:1032800007E225EE46EE6DE17CE7DCCF08E221E0C7
:1032900045EE6EE17CE7D6CF12968C91882319F02B
:1032A00010925B02D3CF81E0D1CF1092B9008CE0B5
:1032B0008093B8000895B0E0A0E0E1E6F9E10C9455
:1032C0004624B82EEB010E94201D6C01EE24E394ED
:1032D000F12CC431D10560F025E0E22EF12CCF3F76
:1032E000DC0731F0CE0164E170E00E9411247B0123
:1032F00084EAA82E94E8992E1092BC00A092BC00FB
:103300000E94201D8C018091BC0087FF0DC0809120
:10331000B900887F8830F9F08091B900887F8031CA
:10332000D1F00FEF1FEF08C0C8010E94381DE8164A
:10333000F90648F70EEF1FEFCF3FDC07E9F2C601B1
:103340000E94381DC817D907B8F6C801CDB7DEB737
:10335000EBE00C946224B092BB009092BC000E94FF
:10336000201D8C018091BC0087FF0AC08091B900AC
:10337000887F883111F08034A1F610E000E0E5CFBD
:10338000C8010E94381DE816F90660F7D3CF0F93E5
:103390001F93CF93DF93EB018093BB0084E880936E
:1033A000BC000E94201D8C018091BC0087FF11C0D1
:1033B0002091B900287F81E090E0283211F490E05C
:1033C00080E0919581959109DF91CF911F910F91A7
:1033D0000895CF3FDC0741F3C8010E94381DC8178C
:1033E000D90710F78EEF9FEFEFCFB0E0A0E0EBEF43
:1033F000F9E10C9449246B018A017901B9010E9419
:103400005B19E6010C0D1D1DC017D10711F097FFC8
:1034100008C024E92093BC00CDB7DEB7E8E00C94E7
:103420006524B70189910E94C719EECFB0E0A0E0F2
:10343000ECE1FAE10C944924C62F6A017901B80144
:103440000E945B1997FD0CC0B8018C2F0E94C71910
:10345000E601EC0CFD1CCE15DF0511F097FF08C04E
:1034600024E92093BC00CDB7DEB7E8E00C946524D6
:10347000B80189910E94C719EECF84E98093BC00FE
:1034800008958EE14A9B02C08150E1F74A9BFECF2E
:1034900008955A9880E28A95F1F75A9A0895FC01A6
:1034A0003BE03A95F1F798E020E080E031E040E140
:1034B0004A95F1F7880F4A9B02C08160232742E0BA
:1034C0004A95F1F7000040E14A95F1F7915079F7FC
:1034D00090E19A95F1F799B132E03A95F1F7000051
:1034E00040E14A95F1F792FB992790F992272081C4
:1034F000920F90830895A1E0B0E0E1E8FAE10C9426
:103500004B2419828C017C01E60EF11C0E151F055F
:1035100041F481E09981911180E02196E6E00C94DC
:1035200067240E94411ACE0101960E944F1AF801A9
:1035300081938F01EBCF529A5A9A089552985A9AD2
:10354000EA9AE9E6F0E080818F7C808308956150FB
:10355000770B91E001C0990F6A95EAF720E031E01E
:10356000911108C0222391F05A9A80E28A95F1F7CE
:103570005A980895492F482339F05A9A232740E250
:103580004A95F1F79695ECCF5A98F9CF5A98EDCF26
:10359000FF920F931F93CF93DF93EC018C01060FE3
:1035A000111DC017D10729F4CDB7DEB7E5E00C94A3
:1035B0006824F9900E94491A68E08F2D0E94A71A8A
:1035C000F0CF1F920F920FB60F9211240F931F93FB
:1035D0002F933F934F935F936F937F938F939F931B
:1035E000AF93BF93EF93FF93CF93DF930F92CDB73A
:1035F000DEB719820E94411ACE0101960E944F1A2D
:10360000082F069506950695282F22952570902F50
:103610009570290F922F937026952695920F9827D3
:1036200097708981982B09F05CC0063008F059C06A
:1036300080E18A95F1F75A9A529A82E08A95F1F7D9
:1036400000C05A9888E0089F80011124D801AD5F1E
:10365000BE4F1696ED91FC9117973097A9F06091A7
:1036600048017091490114962D913C911597260FB0
:10367000371F11968D919C911297680F791F1396A1
:103680004C9113978C910995F801ED5FFE4F638182
:10369000662351F020914801309149018481958140
:1036A000820F931F0E94C81A0E94491A80E18A95CE
:1036B000F1F75A9852985A9A80E18A95F1F7F801F1
:1036C000ED5FFE4F6081662351F0209148013091FB
:1036D000490181819281820F931F0E947B1A0E946F
:1036E000411A0F90DF91CF91FF91EF91BF91AF9170
:1036F0009F918F917F916F915F914F913F912F910A
:103700001F910F910F900FBE0F901F9018950F9360
:103710001F93CF93DF93EC0106970CF04CC0F89405
:10372000529A5A9885E08A95F1F700009C2F969559
:1037300095708C2F8570980F892F8370969596952C
:1037400023E0CC0FDD1F2A95E1F7980F8E01092B9E
:103750000E94491A00C068E0802F0E94A71A80E1E9
:103760008A95F1F752985A9A4A9B1EC087E090E0DA
:103770004A991CC0FE01ED5FFE4F63816623F9F09C
:10378000209148013091490184819581820F931FD6
:103790000E947B1A811113C0529A5A9A7894DF9131
:1037A000CF911F910F91089500C0DECF019729F4AA
:1037B000529A5A9A789480E0F2CF00C0D9CF0E94F2
:1037C000411A80E28A95F1F75A98529A80E18A95D7
:1037D000F1F7CD5FDE4F6881662351F020914801FB
:1037E0003091490189819A81820F931F0E94C81AE2
:1037F0000E94491A789481E0D2CF9093630180931C
:103800006201089590935E0280935D0208950E9484
:10381000C011811103C080915C020895E0915D02A6
:10382000F0915E02309729F00190F081E02D09952A
:10383000089580E00895E0915D02F0915E02309776
:1038400021F00280F381E02D099508959C012E5FFF
:103850003F4FAC01485F5F4F80E02417350709F404
:103860000895F90191919F019923B9F38F5FF5CFE5
:10387000662349F0FC01329608962191261729F01B
:10388000E817F907D1F780E0089581E008959C01D9
:10389000FC0132969FEF80E04191461751F09F3F27
:1038A00019F4411101C0982F8F5F8630A9F79F3F0F
:1038B00009F40895290F311D97FD3A95F9016283A6
:1038C0000895FC01329608962191261303C0DF016A
:1038D00011971C92E817F907B9F708950E94471C41
:1038E00008950E94611C0895029626E0FC01119241
:1038F0002A95E9F7089508950E947B1C0895811187
:1039000006C081E080935F020E947C1C089582E0E3
:10391000F9CF83E080935F020E947C1C08950E948F
:103920007F1C089581E080935F020E947C1C0895B3
:103930000E94921C0895089508950E949C1C089569
:10394000089508950E949B1C0895CF930E94A01C87
:103950000E9444110E94A11CC0E08C2F0E941D10E7
:10396000811105C0CF5FCA30C1F7CF91089581E0C2
:10397000FCCF85B7806885BF85B7806885BF08950F
:103980001F921FB61F9211248F939F93AF93BF93E3
:1039900080916002811113C080918F0490919004F6
:1039A000A0919104B09192044196A11DB11D809304
:1039B0008F0490939004A0939104B0939204BF91CC
:1039C000AF919F918F911F901FBE1F90189580916E
:1039D0009704843031F10E94AB021092600288E1BA
:1039E00090E020E40FB6F894A895809360000FBE95
:1039F0002093600083B7817F846083BF83B7816039
:103A000083BF7894889583B78E7F83BF0FB6F89471
:103A1000A89580916000886180936000109260009A
:103A20000FBE08950E94D2060E94B202089582E05D
:103A300084BD93E095BD9AEF97BD80936E00089585
:103A40002FB7F89480918F0490919004A0919104E5
:103A5000B09192042FBF08952FB7F89460918F040E
:103A60007091900480919104909192042FBF0895D9
:103A70009C014FB7F89480918F0490919004A0918D
:103A80009104B09192044FBF821B930B0895CF9283
:103A9000DF92EF92FF922FB7F894C0908F04D090EE
:103AA0009004E0909104F09092042FBFA70196013A
:103AB000261B370B480B590BCA01B901FF90EF9039
:103AC000DF90CF90089578941F921FB61F92112413
:103AD0008F939F93AF93BF9380918F0490919004A5
:103AE000A0919104B09192040196A11DB11D809303
:103AF0008F0490939004A0939104B0939204BF918B
:103B0000AF919F918F911F901FBE1F90189587E7CF
:103B100097E7909301088093000888E19AE00FB638
:103B2000F894A895809360000FBE90936000FFCF3B
:103B300088E19AE00FB6F894A895809360000FBED4
:103B400090936000FFCF80916902089508950895D1
:103B50009B01BA01909197049430E9F48F7080939F
:103B6000E9009FEF8091E800915085FD06C085ED4A
:103B70008A95F1F700009111F5CF8091E80085FF5B
:103B80000AC050E040E0C9010E94781F8091E8001F
:103B90008E778093E8000895CF93DF93EC0148E09F
:103BA00050E0BC0181E00E94A81D88E0FE01A1E672
:103BB000B2E001900D928A95E1F7DF91CF910895DF
:103BC00080919604811109C00E9408210E946521FC
:103BD0008091E20084608093E20008951092960440
:103BE00008950E94921C08956091930481E06111F0
:103BF00001C080E00E94891C08959091970481E0A3
:103C0000943009F080E0609193040E948F1C089525
:103C100042E061EC81E00E9484209091970481E071
:103C2000943009F080E0609193040E947F1C089515
:103C300080919904833009F461C030F48130D1F16E
:103C4000823009F49EC008958A3009F48AC08B300E
:103C500009F46FC0893009F050C080919804813216
:103C600009F04BC080919C0490919D04892B09F030
:103C700044C08091E800877F8093E8008091E8004D
:103C800082FF37C09091F3008091F200029731F4E7
:103C90008091F100813011F0863021F48091F100A3
:103CA000809369028091E8008B778093E8000E94FE
:103CB000B82023C080919804813AF9F48091E800FB
:103CC000877F8093E80080919C0490919D04892BCC
:103CD00061F468E081E692E070E00E94C71F809185
:103CE000E8008B778093E800089560E090E080E042
:103CF000F3CF809197048111C1CF089580919804EA
:103D0000813AD9F780919C0490919D04892BA9F761
:103D10008091E800877F8093E8008091E80080FF31
:103D2000FCCF80913C018093F1008091E8008E7778
:103D3000BCCF80919804813201F780919C049091CE
:103D40009D04892BD1F68091E800877F8093E8005D
:103D50000E94B82080919A0480933C010E94D20670
:103D6000089580919804813241F68091E800877F20
:103D70008093E8000E94B82080919B0480936A029F
:103D8000089580919804813A09F0B7CF8091E800B6
:103D9000877F8093E8008091E80080FFFCCF8091CE
:103DA0006A02C1CF84B7877F84BF0FB6F894A89505
:103DB00080916000886180936000109260000FBE67
:103DC00080E890E00FB6F8948093610090936100D2
:103DD0000FBE0E94981C08950E9408210E94652130
:103DE000E2EEF0E080818460808378940E94E42396
:103DF000089584E391E00E94021C08958091970445
:103E0000853031F480919704853019F00E94121D9D
:103E100008950E94E71C80919504882399F30E94DD
:103E2000A51C882379F30E94621F0E94D206EACF64
:103E300008950E941C1F0895292F33272330310530
:103E4000C9F058F42130310599F122303105A9F13A
:103E500090E080E030E020E01DC02132310509F122
:103E600022323105A9F780E490E022E133E0672BAC
:103E700079F710C099278130910581F0009729F0DA
:103E8000029731F7E0EBF2E002C0EAEDF2E0849154
:103E900090E09F01FA01318320830895EEEBF2E078
:103EA000F6CF89E090E020EF32E0672B89F6F2CF81
:103EB00082E190E020E033E0EDCF82E290E02EED71
:103EC00032E0E8CF80E189BD82E189BD09B400FE1E
:103ED000FDCF8091D8008F7D8093D8008091E00045
:103EE00082608093E0008091E00081FDFCCF089526
:103EF000AF92BF92CF92DF92FF920F931F93CF9317
:103F0000DF936C01EB018A010E94D720F82E81110A
:103F100023C00115110539F0F80180819181C81B7A
:103F2000D90BC80ED91EB12CA12C2097A9F08091D5
:103F3000E80085FD22C08091E8008E778093E8003C
:103F400001151105A1F0F80180819181A80EB91E1B
:103F5000B182A08285E0F82E8F2DDF91CF911F9145
:103F60000F91FF90DF90CF90BF90AF9008950E9487
:103F7000D7208823D1F2F82EEFCFF60181916F017F
:103F80008093F1002197FFEFAF1ABF0ACECFFC015B
:103F900080919E0490919F0486179707A0F0611569
:103FA000710529F49091E8009E779093E80090E0E5
:103FB0006115710551F4911108C08091E80082FFEC
:103FC00034C080E00895BC01F2CF8091970488232B
:103FD000C1F18530C1F18091E80083FD30C080914E
:103FE000E80082FDEACF8091E80080FFE1CF809178
:103FF000F3002091F200382F6115710519F0283077
:10400000310558F091E02830310509F090E0209119
:10401000E8002E772093E800CBCF81918093F100C8
:10402000615071092F5F3F4FE7CF8091970488233C
:1040300041F0853041F08091E80083FFBECF81E000
:10404000089582E0089583E00895FC0180919E0424
:1040500090919F0486179707A0F06115710529F4C8
:104060008091E8008E778093E80090E061157105FB
:1040700051F4911108C08091E80082FF35C080E0C2
:104080000895BC01F2CF809197048823C9F185304F
:10409000C9F18091E80083FD31C08091E80082FD84
:1040A000EACF8091E80080FFE1CF8091F30020917A
:1040B000F200382F6115710519F02830310558F0DC
:1040C00091E02830310509F090E08091E8008E778A
:1040D0008093E800CBCF84918093F10031966150BA
:1040E00071092F5F3F4FE6CF80919704882341F0FD
:1040F000853041F08091E80083FFBDCF81E00895D5
:1041000082E0089583E00895982F973028F08F700B
:104110008093E90081E008959093E900242F762FA1
:1041200050E0981731F07091EC002091ED00509123
:10413000F00021FD02C09F5FE8CF3091EB003E7F91
:104140003093EB003091ED003D7F3093ED003091E6
:10415000EB0031603093EB007093EC002093ED00A6
:104160005093F0002091EE0027FDE5CF80E0089508
:104170008091980487FF13C08091E80082FF06C0F9
:104180008091E8008B778093E80004C080919704C9
:104190008111F2CF0895809197048823D9F38091FB
:1041A000E80080FFF8CF8091E8008E77ECCF209177
:1041B000E4003091E50095E6A9012091EC00822F02
:1041C000817020FF06C08091E80080FF06C080E07B
:1041D00008952091E80022FD1AC080919704882359
:1041E00089F0853089F08091EB0085FD0FC020912A
:1041F000E4003091E50042175307F9F29150E1F6DF
:1042000084E0089582E0089583E0089581E00895B0
:104210000E9477210E947F21E0EEF0E080818160A2
:104220008083E8EDF0E080818F77808319BCA7ED73
:10423000B0E08C918E7F8C9380818F7E80831092F2
:10424000960408950F931F93CF93DF930E947721D5
:104250000E947F21C8EDD0E088818F778883888194
:104260008068888388818F7D888319BC1092970429
:1042700010929304109295041092940400EE10E0B2
:10428000F80180818B7F808388818160888342E010
:1042900060E080E00E948420E1EEF0E080818E7F8B
:1042A0008083E2EEF0E0808181608083808188609D
:1042B0008083F80180818E7F8083888180618883FC
:1042C000DF91CF911F910F910895E8EDF0E080818B
:1042D0008F7E8083E7EDF0E080818160808384E0E1
:1042E00082BF81E0809396040E9422210895E8ED28
:1042F000F0E080818E7F80831092E200089510921A
:10430000DA001092E10008951F920F920FB60F92FB
:1043100011242F933F934F935F936F937F938F93CA
:104320009F93AF93BF93EF93FF938091E10082FF40
:104330000BC08091E20082FF07C08091E1008B7F7B
:104340008093E1000E94E3238091DA0080FF19C08E
:104350008091D80080FF15C08091DA008E7F809315
:10436000DA008091D90080FF96C080E189BD82E1AA
:1043700089BD09B400FEFDCF81E0809397040E94BF
:10438000E01D8091E10080FF19C08091E20080FF74
:1043900015C08091E2008E7F8093E2008091E20060
:1043A00080618093E2008091D80080628093D80081
:1043B00019BC85E0809397040E94F41D8091E10070
:1043C00084FF2BC08091E20084FF27C080E189BD7B
:1043D00082E189BD89B5982F917080FFFBCF8091D4
:1043E000D8008F7D8093D8008091E1008F7E8093EC
:1043F000E1008091E2008F7E8093E2008091E200F4
:1044000081608093E20080919304882309F449C07D
:1044100084E0809397040E94FD1D8091E10083FF5A
:1044200029C08091E20083FF25C08091E100877F51
:104430008093E10082E0809397041092930480912E
:10444000E1008E7F8093E1008091E2008E7F809377
:10445000E2008091E20080618093E20042E060E04F
:1044600080E00E9484208091F00088608093F000BA
:104470000E94F11DFF91EF91BF91AF919F918F919C
:104480007F916F915F914F913F912F910F900FBE50
:104490000F901F90189519BC109297040E94EE1D62
:1044A00070CF8091E30087FD93E090939704B3CFA2
:1044B0001F920F920FB60F9211242F933F934F9399
:1044C0005F936F937F938F939F93AF93BF93CF939C
:1044D000DF93EF93FF93D091E900DF708091EC00C0
:1044E000C82FC17080FDC0E81092E9008091F000F3
:1044F000877F8093F00078940E949C221092E900BC
:104500008091F00088608093F000CD2BCF70C09335
:10451000E900FF91EF91DF91CF91BF91AF919F9112
:104520008F917F916F915F914F913F912F910F905C
:104530000FBE0F901F901895AAE2B0E0E2EAF2E2F7
:104540000C944E2488E994E02091F100FC01219321
:10455000CF01F4E0803A9F07B9F70E94181E8091BE
:10456000E80083FF1EC180919804909199049A30CD
:1045700008F017C1E92FF0E0E45FFA4D0C943924FC
:10458000803899F0823809F00CC180919C048F70BA
:10459000873008F006C18093E9008091EB0085FB2D
:1045A000882780F91092E90006C0809194049091C8
:1045B0009504911182609091E800977F9093E800B4
:1045C0008093F1001092F1008091E8008E77E5C0B1
:1045D000882309F4D3C0823009F0E3C080919A04A3
:1045E0008111D6C080919C048F702FEF280F263048
:1045F00008F0D7C08093E9002091EB0020FFC8C0ED
:10460000933031F48091EB0080628093EB00C0C066
:104610009091EB0090619093EB0021E030E001C0BD
:10462000220F8A95EAF72093EA001092EA0080911F
:10463000EB008860EACF8111B4C010919A041F7713
:104640008091E3008078812B8093E3008091E800E3
:10465000877F8093E8000E94B8208091E80080FF67
:10466000FCCF8091E30080688093E30082E0111129
:1046700083E08093970495C08058823008F091C001
:1046800080919A0490919B048C3D23E09207A1F5C0
:1046900083E08A838AE289834FB7F894DE01139618
:1046A00020E03EE051E2E32FF0E050935700E49128
:1046B00020FF03C0E295EF703F5FEF708E2F90E018
:1046C000EA30C0F0C7968D939D932F5F243159F740
:1046D0004FBF8091E800877F8093E8006AE270E036
:1046E000CE0101960E94C71F8091E8008B778093CE
:1046F000E80057C0C096E7CF60919C0470919D047C
:10470000AE014F5F5F4F0E94191FBC01892B09F456
:1047100048C09091E800977F9093E80089819A8142
:104720000E942520E1CF8038E1F58091E800877F65
:104730008093E800809193048093F10045CF81112C
:1047400030C090919A04923060F58091E800877FA4
:104750008093E800909393040E94B8208091930482
:10476000882311F084E005C08091E30087FDFACF33
:1047700081E0809397040E94081E13C080919A04E0
:10478000813079F481E0933009F080E080939504E2
:104790001092E9008091E800877F8093E8000E94F2
:1047A000B8208091E80083FF0AC08091E800877FED
:1047B0008093E8008091EB0080628093EB00AA96E2
:1047C000E3E00C946A240895CF93809197048823A2
:1047D000A1F0C091E900CF709091EC00892F817019
:1047E00090FD80E8C82B1092E9008091E80083FDDD
:1047F0000E949C22CF70C093E900CF9108950E943F
:104800000821109297040895E8EDF0E0808180611E
:1048100080838AE18A95F1F700C08091D900817088
:104820000895AA1BBB1B51E107C0AA1FBB1FA617F7
:10483000B70710F0A61BB70B881F991F5A95A9F749
:1048400080959095BC01CD01089597FB072E16F435
:10485000009407D077FD09D00E94112407FC05D0F1
:104860003EF4909581959F4F0895709561957F4F87
:104870000895EE0FFF1F0590F491E02D09942F92FB
:104880003F924F925F926F927F928F929F92AF92E0
:10489000BF92CF92DF92EF92FF920F931F93CF932D
:1048A000DF93CDB7DEB7CA1BDB0B0FB6F894DEBFC4
:1048B0000FBECDBF09942A88398848885F846E84EA
:1048C0007D848C849B84AA84B984C884DF80EE8034
:1048D000FD800C811B81AA81B981CE0FD11D0FB63D
:1048E000F894DEBF0FBECDBFED010895FB01DC01E2
:1048F00004C08D910190801921F441505040C8F7B7
:10490000881B990B0895FB01DC0102C001900D92F8
:1049100041505040D8F70895F999FECF92BD81BD1E
:10492000F89A992780B50895A8E1B0E042E050E0F8
:104930000C94C024262FF999FECF92BD81BDF89A20
:10494000019700B4021639F01FBA20BD0FB6F894D3
:10495000FA9AF99A0FBE08950396272F0E949B2476
:104960000E949A24252F0E949B24242F0C949B2480
:104970000196272F0E949B240C949A24DC01CB01E2
:10498000FC01F999FECF06C0F2BDE1BDF89A31965F
:1049900000B40D9241505040B8F70895F894FFCFFD
:1049A0006D046D04C804C8049D049D0425069D047F
:1049B0003D05B005C005C0052E064F0638063B066E
:1049C00042063E0647068D16011795165F166316BA
:1049D000991667169D16A9167316FA167716AD1650
:1049E0007B16B116D9167F16B516E0168516BB16BE
:1049F000C3166B16A1166F16A5168916BF16CF160D
:104A0000E916F8165916911608172E1934191D199A
:104A100028193A1940194619C022E822D123E82260
:0C4A2000D1231B233C23D12393239F238D
:104A2C00DB01010000000100000000000000050196
:104A3C00000000000000010600000000000001075B
:104A4C0000000004080000000000000021007F228C
:104A5C000003F4F5A31DCC1DA71DA61D01F6F7310F
:104A6C003332366697C63435060200081018181013
:104A7C00080000FF0100010000FFFF000001000121
:024A8C00FF0029
:00000001FF
